:100000000C942A000C9447000C9447000C94470071
:100010000C9447000C9447000C9447000C94470044
:100020000C9447000C9415080C9447000C9447005E
:100030000C9447000C9432080C9447000C94470031
:100040000C9447000C9447000C9447000C94470014
:100050000C94470011241FBECFE5D8E0DEBFCDBF12
:1000600010E0A0E6B0E0E0ECF2E202C005900D92F4
:10007000A238B107D9F710E0A2E8B0E001C01D92A4
:10008000A638B107E1F70E9428030C945E110C9486
:100090000000CF93DF9300D00F92CDB7DEB78983F6
:1000A0006A834B838981882F90E08234910509F41B
:1000B00040C08334910524F48134910551F0C9C0C6
:1000C0008334910509F465C08434910509F491C025
:1000D000C0C08B818130B1F48AE390E02AE330E044
:1000E000F9012081622F2A81422F50E021E030E087
:1000F000042E02C0220F331F0A94E2F7262BFC01C4
:100100002083A8C08AE390E02AE330E0F90120814F
:10011000622F2A81422F50E021E030E0042E02C0FD
:10012000220F331F0A94E2F720952623FC01208337
:1001300091C08B818130B1F487E390E027E330E018
:10014000F9012081622F2A81422F50E021E030E026
:10015000042E02C0220F331F0A94E2F7262BFC0163
:10016000208378C087E390E027E330E0F901208125
:10017000622F2A81422F50E021E030E0042E02C09D
:10018000220F331F0A94E2F720952623FC012083D7
:1001900061C08B818130B1F484E390E024E330E0EE
:1001A000F9012081622F2A81422F50E021E030E0C6
:1001B000042E02C0220F331F0A94E2F7262BFC0103
:1001C000208348C084E390E024E330E0F9012081FB
:1001D000622F2A81422F50E021E030E0042E02C03D
:1001E000220F331F0A94E2F720952623FC01208377
:1001F00031C08B818130B1F481E390E021E330E0C4
:10020000F9012081622F2A81422F50E021E030E065
:10021000042E02C0220F331F0A94E2F7262BFC01A2
:10022000208318C081E390E021E330E0F9012081D0
:10023000622F2A81422F50E021E030E0042E02C0DC
:10024000220F331F0A94E2F720952623FC01208316
:1002500001C000000F900F900F90DF91CF91089593
:10026000CF93DF9300D00F92CDB7DEB789836A8337
:100270004B838981882F90E08234910509F440C036
:100280008334910524F48134910551F0C9C083343D
:10029000910509F465C08434910509F491C0C0C08A
:1002A0008B818130B1F48BE390E02BE330E0F901F6
:1002B0002081622F2A81422F50E021E030E0042E7D
:1002C00002C0220F331F0A94E2F7262BFC01208381
:1002D000A8C08BE390E02BE330E0F9012081622F8E
:1002E0002A81422F50E021E030E0042E02C0220F8C
:1002F000331F0A94E2F720952623FC01208391C046
:100300008B818130B1F488E390E028E330E0F9019B
:100310002081622F2A81422F50E021E030E0042E1C
:1003200002C0220F331F0A94E2F7262BFC01208320
:1003300078C088E390E028E330E0F9012081622F63
:100340002A81422F50E021E030E0042E02C0220F2B
:10035000331F0A94E2F720952623FC01208361C015
:100360008B818130B1F485E390E025E330E0F90141
:100370002081622F2A81422F50E021E030E0042EBC
:1003800002C0220F331F0A94E2F7262BFC012083C0
:1003900048C085E390E025E330E0F9012081622F39
:1003A0002A81422F50E021E030E0042E02C0220FCB
:1003B000331F0A94E2F720952623FC01208331C0E5
:1003C0008B818130B1F482E390E022E330E0F901E7
:1003D0002081622F2A81422F50E021E030E0042E5C
:1003E00002C0220F331F0A94E2F7262BFC01208360
:1003F00018C082E390E022E330E0F9012081622F0F
:100400002A81422F50E021E030E0042E02C0220F6A
:10041000331F0A94E2F720952623FC01208301C0B4
:1004200000000F900F900F90DF91CF910895CF9320
:10043000DF9300D00F92CDB7DEB78A836B8319822A
:100440008A81882F90E08234910571F1833491057F
:1004500024F48134910551F081C08334910509F46D
:1004600041C08434910509F45BC078C089E390E011
:10047000FC018081282F30E08B81482F50E081E003
:1004800090E0042E02C0880F991F0A94E2F782239D
:1004900093232B81222F30E0022E02C09595879561
:1004A0000A94E2F789835BC086E390E0FC018081D7
:1004B000282F30E08B81482F50E081E090E0042E1F
:1004C00002C0880F991F0A94E2F7822393232B819D
:1004D000222F30E0022E02C0959587950A94E2F70C
:1004E00089833DC083E390E0FC018081282F30E0C8
:1004F0008B81482F50E081E090E0042E02C0880FED
:10050000991F0A94E2F7822393232B81222F30E054
:10051000022E02C0959587950A94E2F789831FC041
:1005200080E390E0FC018081282F30E08B81482F10
:1005300050E081E090E0042E02C0880F991F0A94D9
:10054000E2F7822393232B81222F30E0022E02C078
:10055000959587950A94E2F7898301C00000898107
:100560000F900F900F90DF91CF910895CF93DF936D
:1005700000D0CDB7DEB789836A838981882F90E068
:1005800082349105A1F08334910524F481349105DE
:1005900041F01FC08334910581F08434910599F0B6
:1005A00018C08BE390E02A81FC01208313C088E30C
:1005B00090E02A81FC0120830DC085E390E02A8130
:1005C000FC01208307C082E390E02A81FC012083A4
:1005D00001C000000F900F90DF91CF910895CF934D
:1005E000DF9300D0CDB7DEB789836A838981882FF6
:1005F00090E082349105A1F08334910524F4813494
:10060000910541F01FC08334910581F08434910538
:1006100099F018C08AE390E02A81FC01208313C07E
:1006200087E390E02A81FC0120830DC084E390E001
:100630002A81FC01208307C081E390E02A81FC012C
:10064000208301C000000F900F90DF91CF9108959B
:10065000EF92FF920F931F93CF93DF93CDB7DEB747
:10066000E0970FB6F894DEBF0FBECDBF60E875E22D
:1006700080E090E00E94980D0E94560888E893E17F
:100680009A83898388E893E19C838B838AE390E053
:1006900027E0FC01208382E390E02FEFFC01208320
:1006A0008AE390E02AE330E0F90120812068FC0130
:1006B00020838AE390E02AE330E0F901208120647E
:1006C000FC0120838AE390E02AE330E0F9012081F5
:1006D0002062FC0120838AE390E02AE330E0F90104
:1006E00020812061FC0120838AE290E02AE230E050
:1006F000F90120812068FC012083789489E590E04D
:1007000029E530E0F90120812460FC0120838FE499
:1007100090E0FC01108281E061E00E94E00C80E644
:1007200090E00E94C00C82E061E00E94E00C8BE649
:1007300090E00E94C00C01C0000082E06BE00E94CB
:10074000E00C809184000E94AB0C809185000E9497
:10075000AB0C8BE390E02BE330E0F90120812160CA
:10076000FC01208380E090E0A0E2B1E48D879E87C9
:10077000AF87B88B6D857E858F8598892BEA3AEA9D
:100780004AE250E40E949310DC01CB01898B9A8BE2
:10079000AB8BBC8B11E069897A898B899C8920E0BD
:1007A00030E040E85FE30E94400F88230CF010E047
:1007B000112319F081E08D8BA3C011E069897A893A
:1007C0008B899C8920E030E04FE753E40E948F1032
:1007D00018160CF010E0112309F489C06D857E8590
:1007E0008F85988920E030E04AE754E40E94440F66
:1007F000DC01CB018E8B9F8BA88FB98F6E897F898F
:10080000888D998D20E030E04AEF54E40E949310E7
:10081000DC01CB018A8F9B8FAC8FBD8F11E06A8D7D
:100820007B8D8C8D9D8D20E030E040E85FE30E9461
:10083000400F88230CF010E0112329F081E090E0B4
:100840009F8F8E8F46C011E06A8D7B8D8C8D9D8D24
:1008500020E03FEF4FE757E40E948F1018160CF08E
:1008600010E0112361F16E897F89888D998D20E0D8
:1008700030E040E251E40E949310DC01CB01BC0166
:10088000CD010E94B10FDC01CB019F8F8E8F12C072
:1008900088EC90E099A388A388A199A18C01C80154
:1008A0000197F1F78C0119A308A38E8D9F8D0197F5
:1008B0009F8F8E8F8E8D9F8D009751F728C06A8DE8
:1008C0007B8D8C8D9D8D0E94B10FDC01CB019F8FA4
:1008D0008E8F8E8D9F8D9BA38AA38AA19BA18C0155
:1008E000F8013197F1F78F011BA30AA310C06989A2
:1008F0007A898B899C890E94B10FDC01CB018D8B99
:100900008D898CA38CA1182F1A95F1F71CA38BE36A
:1009100090E02BE330E0F90120812E7FFC01208361
:100920008CE490E0FC01118210828EE490E021E4DE
:10093000FC01208388E590E020E2FC01208388E52B
:1009400090E024E0FC012083000088E590E0FC01B9
:100950008081882F90E0807290700097B1F38CE4D2
:1009600090E0FC01118210828EE490E021E0FC0115
:10097000208388E590E020E2FC01208388E590E078
:1009800024E0FC012083109283001092820000007A
:1009900088E590E0FC018081882F90E08072907063
:1009A0000097B1F386E490E0FC01808191817C01A5
:1009B00000E010E08091820090918300AA2797FDCB
:1009C000A095BA2F2FEF3FEF40E050E0BC01CD01E2
:1009D0000E94F610DC01CB018E0D9F1DA01FB11FE0
:1009E0008D839E83AF83B8876D817E818F8198854B
:1009F0000E94DF0FDC01CB01BC01CD0129E23CE309
:100A000049EE53E40E94440FDC01CB0189879A87A9
:100A1000AB87BC8781E06AE00E94E00C11E0698549
:100A20007A858B859C8520E030E048EC52E40E947A
:100A30008F1088230CF410E0112309F462C011E038
:100A400069857A858B859C8520E030E04AE754E40F
:100A50000E94400F88230CF010E0112309F451C0CC
:100A600069857A858B859C8520E030E048EC52E4EE
:100A70000E94440FDC01CB01BC01CD0120E030E03D
:100A800040E452E40E94DC0EDC01CB01BC01CD014C
:100A90000E94B10FDC01CB010E94AB0C69857A8505
:100AA0008B859C8520E030E040E251E40E94440FB9
:100AB000DC01CB01BC01CD010E94AC0FDC01CB01FC
:100AC0002AE030E0B9010E941511805D0E94AB0C54
:100AD00069857A858B859C850E94AC0FDC01CB01F2
:100AE0002AE030E0B9010E941511805D0E94AB0C34
:100AF00081E06DE00E94E00C87E790E00E94C00C6E
:100B00008CC011E069857A858B859C8520E030E07A
:100B100040E251E40E948F1088230CF410E011236E
:100B200009F44BC011E069857A858B859C8520E0AE
:100B300030E048EC52E40E94400F88230CF010E0B3
:100B40001123D9F169857A858B859C8520E030E079
:100B500040E251E40E94440FDC01CB01BC01CD0115
:100B600020E030E040E452E40E94DC0EDC01CB01E6
:100B7000BC01CD010E94B10FDC01CB010E94AB0C86
:100B800069857A858B859C850E94AC0FDC01CB0141
:100B90002AE030E0B9010E941511805D0E94AB0C83
:100BA00081E06CE00E94E00C87E790E00E94C00CBE
:100BB0008AE790E00E94C00C30C011E069857A8518
:100BC0008B859C8520E030E040E251E40E94400F9C
:100BD00088230CF010E0112301F169857A858B855B
:100BE0009C8520E030E040E452E40E94DC0EDC0111
:100BF000CB01BC01CD010E94B10FDC01CB010E94F1
:100C0000AB0C81E06BE00E94E00C87E790E00E9473
:100C1000C00C8DE790E00E94C00C80918500882F69
:100C200090E08533910509F448C0863391058CF432
:100C30008133910539F18233910524F48033910594
:100C4000C1F068C08233910531F18433910561F1BF
:100C500061C08733910509F442C087339105B4F12F
:100C60008833910509F444C08933910509F449C0DA
:100C700051C088E293E29A83898388EE93E09C8353
:100C80008B8348C08CE795E19A83898384E991E15D
:100C90009C838B833FC080E797E19A83898380EAB6
:100CA0009FE09C838B8336C084E699E19A83898395
:100CB0008CEA9DE09C838B832DC088E59BE19A8321
:100CC000898388EB9BE09C838B8324C08CE49DE12B
:100CD0009A83898384EC99E09C838B831BC080E496
:100CE0009FE19A83898380ED97E09C838B8312C078
:100CF00084E391E29A8389838CED95E09C838B83D6
:100D000009C088E293E29A83898388EE93E09C830A
:100D10008B83000080918400863429F58BE390E07A
:100D20002BE330E0F90120812068FC0120838BE374
:100D300090E02BE330E0F90120812F7BFC01208340
:100D40008BE390E02BE330E0F90120812062FC018D
:100D500020838BE390E02BE330E0F90120812F7EAC
:100D6000FC012083E9CC80918400823409F063C0C7
:100D70008BE390E02BE330E0F90120812F77FC0139
:100D800020838BE390E02BE330E0F90120812F7D7D
:100D9000FC0120838BE390E02BE330E0F90120811C
:100DA0002064FC0120838BE390E02BE330E0F90129
:100DB00020812061FC01208389819A819EA38DA3DB
:100DC0008DA19EA18C01C8010197F1F78C011EA392
:100DD0000DA38BE390E02BE330E0F9012081206844
:100DE000FC0120838BE390E02BE330E0F9012081CC
:100DF0002062FC0120838BE390E02BE330E0F901DB
:100E000020812F7BFC0120838BE390E02BE330E0FB
:100E1000F90120812F7EFC0120838B819C8198A782
:100E20008FA38FA198A58C01C8010197F1F78C01C0
:100E300018A70FA381CC80918400823509F063C08C
:100E40008BE390E02BE330E0F90120812F77FC0168
:100E500020838BE390E02BE330E0F90120812F7DAC
:100E6000FC0120838BE390E02BE330E0F90120814B
:100E70002064FC0120838BE390E02BE330E0F90158
:100E800020812061FC01208389819A819AA789A70A
:100E900089A59AA58C01C8010197F1F78C011AA7C1
:100EA00009A78BE390E02BE330E0F9012081206873
:100EB000FC0120838BE390E02BE330E0F9012081FB
:100EC0002062FC0120838BE390E02BE330E0F9010A
:100ED00020812F7BFC0120838BE390E02BE330E02B
:100EE000F90120812F7EFC0120838B819C819CA7AE
:100EF0008BA78BA59CA58C01C8010197F1F78C01EC
:100F00001CA70BA719CC809184008C3409F063C016
:100F10008BE390E02BE330E0F90120812F77FC0197
:100F200020838BE390E02BE330E0F90120812F7DDB
:100F3000FC0120838BE390E02BE330E0F90120817A
:100F40002064FC0120838BE390E02BE330E0F90187
:100F500020812061FC01208389819A819EA78DA731
:100F60008DA59EA58C01C8010197F1F78C011EA7E4
:100F70000DA78BE390E02BE330E0F901208120689E
:100F8000FC0120838BE390E02BE330E0F90120812A
:100F90002062FC0120838BE390E02BE330E0F90139
:100FA00020812F7BFC0120838BE390E02BE330E05A
:100FB000F90120812F7EFC0120838B819C8198ABDD
:100FC0008FA78FA598A98C01C8010197F1F78C0113
:100FD00018AB0FA7B1CB80918400833509F0ACCB5F
:100FE0008BE390E02BE330E0F90120812F77FC01C7
:100FF00020838BE390E02BE330E0F90120812F7D0B
:10100000FC0120838BE390E02BE330E0F9012081A9
:101010002F7BFC0120838BE390E02BE330E0F90190
:1010200020812F7EFC01208387CB1F920F920FB669
:101030000F9211248F939F93CF93DF93CDB7DEB799
:101040008091820090918300019690938300809319
:101050008200DF91CF919F918F910F900FBE0F90E3
:101060001F9018951F920F920FB60F9211248F9315
:101070009F93EF93FF93CF93DF93CDB7DEB78CE2CF
:1010800090E0FC018081809385008CE290E0FC017F
:10109000808180938400DF91CF91FF91EF919F91A8
:1010A0008F910F900FBE0F901F9018950F931F9365
:1010B000CF93DF93CDB7DEB7C654D0400FB6F894C8
:1010C000DEBF0FBECDBF80E090E0AAE7B4E4898325
:1010D0009A83AB83BC8369817A818B819C8120E078
:1010E00030E04AE753E40E949310DC01CB018D838A
:1010F0009E83AF83B88711E06D817E818F81988553
:1011000020E030E040E85FE30E94400F88230CF0CD
:1011100010E0112329F081E090E09A87898746C08A
:1011200011E06D817E818F81988520E03FEF4FE750
:1011300057E40E948F1018160CF010E0112361F193
:1011400069817A818B819C8120E030E040E251E42A
:101150000E949310DC01CB01BC01CD010E94B10FB4
:10116000DC01CB019A87898712C089E190E09C87D6
:101170008B878B859C858C01C8010197F1F78C01C9
:101180001C870B8789859A8501979A878987898526
:101190009A85009751F717C06D817E818F81988560
:1011A0000E94B10FDC01CB019A87898789859A85D6
:1011B0009E878D878D859E858C01F8013197F1F78B
:1011C0008F011E870D8782E460E041E00E944900A4
:1011D00082E461E041E00E94490082E462E041E093
:1011E0000E94490082E463E041E00E94490082E4F9
:1011F00064E041E00E94490082E465E041E00E9431
:10120000490082E466E041E00E94490082E467E030
:1012100041E00E94490081E461E041E00E94490010
:1012200081E463E041E00E94490081E462E041E042
:101230000E94490088E30E94960C80E090E0A8E4B8
:10124000B3E48F87988BA98BBA8B6F85788989894E
:101250009A8920E030E04AE753E40E949310DC01D1
:10126000CB018B8B9C8BAD8BBE8B11E06B897C890A
:101270008D899E8920E030E040E85FE30E94400FC6
:1012800088230CF010E0112329F081E090E0988F82
:101290008F8B46C011E06B897C898D899E8920E007
:1012A0003FEF4FE757E40E948F1018160CF010E044
:1012B000112361F16F85788989899A8920E030E06E
:1012C00040E251E40E949310DC01CB01BC01CD014E
:1012D0000E94B10FDC01CB01988F8F8B12C089E186
:1012E00090E09A8F898F898D9A8D8C01C801019722
:1012F000F1F78C011A8F098F8F89988D0197988F3C
:101300008F8B8F89988D009751F717C06B897C89D7
:101310008D899E890E94B10FDC01CB01988F8F8B44
:101320008F89988D9C8F8B8F8B8D9C8D8C01F80174
:101330003197F1F78F011C8F0B8F8EE00E94960C76
:1013400080E090E0A8E4B3E48D8F9E8FAF8FB8A3C8
:101350006D8D7E8D8F8D98A120E030E04AE753E4BB
:101360000E949310DC01CB0189A39AA3ABA3BCA379
:1013700011E069A17AA18BA19CA120E030E040E8B6
:101380005FE30E94400F88230CF010E0112329F046
:1013900081E090E09EA38DA346C011E069A17AA1EF
:1013A0008BA19CA120E03FEF4FE757E40E948F10F4
:1013B00018160CF010E0112361F16D8D7E8D8F8D6C
:1013C00098A120E030E040E251E40E949310DC015B
:1013D000CB01BC01CD010E94B10FDC01CB019EA36A
:1013E0008DA312C089E190E098A78FA38FA198A543
:1013F0008C01C8010197F1F78C0118A70FA38DA1EB
:101400009EA101979EA38DA38DA19EA1009751F748
:1014100017C069A17AA18BA19CA10E94B10FDC0128
:10142000CB019EA38DA38DA19EA19AA789A789A573
:101430009AA58C01F8013197F1F78F011AA709A736
:1014400081E00E94960C80E090E0A8E4B3E48BA7D2
:101450009CA7ADA7BEA76BA57CA58DA59EA520E0EA
:1014600030E04AE753E40E949310DC01CB018FA7E0
:1014700098ABA9ABBAAB11E06FA578A989A99AA9D5
:1014800020E030E040E85FE30E94400F88230CF04A
:1014900010E0112329F081E090E09CAB8BAB46C0BB
:1014A00011E06FA578A989A99AA920E03FEF4FE73D
:1014B00057E40E948F1018160CF010E0112361F110
:1014C0006BA57CA58DA59EA520E030E040E251E40F
:1014D0000E949310DC01CB01BC01CD010E94B10F31
:1014E000DC01CB019CAB8BAB12C089E190E09EABE1
:1014F0008DAB8DA99EA98C01C8010197F1F78C01D4
:101500001EAB0DAB8BA99CA901979CAB8BAB8BA998
:101510009CA9009751F717C06FA578A989A99AA926
:101520000E94B10FDC01CB019CAB8BAB8BA99CA9BA
:1015300098AF8FAB8FA998AD8C01F8013197F1F777
:101540008F0118AF0FAB86E00E94960C80E090E010
:10155000A8E4B3E489AF9AAFABAFBCAF69AD7AADE5
:101560008BAD9CAD20E030E04AE753E40E9493103D
:10157000DC01CB019E01235C3F4FF9018083918305
:10158000A283B38311E0CE01CD96FC01608171810D
:101590008281938120E030E040E85FE30E94400FC9
:1015A00088230CF010E0112349F0CE018F5B9F4F90
:1015B00021E030E0FC01318320836EC011E0CE01D8
:1015C000CD96FC01608171818281938120E03FEFA3
:1015D0004FE757E40E948F1018160CF010E011230B
:1015E00009F449C069AD7AAD8BAD9CAD20E030E027
:1015F00040E251E40E949310DC01CB018E010F5BAD
:101600001F4FBC01CD010E94B10FDC01CB01F801DD
:101610009183808327C0CE018D5B9F4F29E130E00D
:10162000FC0131832083CE018D5B9F4FFC018081C3
:1016300091818C01C8010197F1F78C01CE018D5B7E
:101640009F4FFC0111830083CE018F5B9F4F9E0152
:101650002F5B3F4FF9012081318121503040FC0147
:1016600031832083CE018F5B9F4FFC01808191816C
:10167000009789F62EC08E010F5B1F4FCE01CD96CD
:10168000FC0160817181828193810E94B10FDC0134
:10169000CB01F80191838083CE018B5B9F4F9E012C
:1016A0002F5B3F4FF90120813181FC013183208381
:1016B000CE018B5B9F4FFC01808191818C01C80121
:1016C0000197F1F78C01CE018B5B9F4FFC011183D9
:1016D0000083CA5BDF4F0FB6F894DEBF0FBECDBFED
:1016E000DF91CF911F910F9108950F931F93CF9387
:1016F000DF93CDB7DEB76C970FB6F894DEBF0FBEA1
:10170000CDBF81E461E041E00E94300180E090E0E3
:10171000A0E0B0E489839A83AB83BC8369817A813A
:101720008B819C8120E030E04AE753E40E949310D3
:10173000DC01CB018D839E83AF83B88711E06D817F
:101740007E818F81988520E030E040E85FE30E9451
:10175000400F88230CF010E0112329F081E090E085
:101760009A87898746C011E06D817E818F81988537
:1017700020E03FEF4FE757E40E948F1018160CF05F
:1017800010E0112361F169817A818B819C8120E0D5
:1017900030E040E251E40E949310DC01CB01BC0137
:1017A000CD010E94B10FDC01CB019A87898712C05D
:1017B00089E190E09C878B878B859C858C01C80193
:1017C0000197F1F78C011C870B8789859A85019712
:1017D0009A87898789859A85009751F717C06D8107
:1017E0007E818F8198850E94B10FDC01CB019A87A1
:1017F000898789859A859E878D878D859E858C01B1
:10180000C8010197F1F78C011E870D8781E461E023
:1018100040E00E94300180E090E0A0E0B0E48F87DB
:10182000988BA98BBA8B6F85788989899A8920E0F2
:1018300030E04AE753E40E949310DC01CB018B8B2C
:101840009C8BAD8BBE8B11E06B897C898D899E89C9
:1018500020E030E040E85FE30E94400F88230CF076
:1018600010E0112329F081E090E0988F8F8B46C023
:1018700011E06B897C898D899E8920E03FEF4FE7DD
:1018800057E40E948F1018160CF010E0112361F13C
:101890006F85788989899A8920E030E040E251E4B7
:1018A0000E949310DC01CB01BC01CD010E94B10F5D
:1018B000DC01CB01988F8F8B12C089E190E09A8F69
:1018C000898F898D9A8D8C01C8010197F1F78C0160
:1018D0001A8F098F8F89988D0197988F8F8B8F8999
:1018E000988D009751F717C06B897C898D899E89E7
:1018F0000E94B10FDC01CB01988F8F8B8F89988D5F
:101900009C8F8B8F8B8D9C8D8C01C8010197F1F77B
:101910008C011C8F0B8F6C960FB6F894DEBF0FBE38
:10192000CDBFDF91CF911F910F910895CF93DF939A
:101930000F92CDB7DEB7898382E469810E94B60237
:1019400081E462E040E00E9430010E94750B0F903C
:10195000DF91CF910895CF93DF930F92CDB7DEB78C
:10196000898382E469810E94B60281E462E041E0F9
:101970000E9430010E94750B0F90DF91CF91089566
:10198000CF93DF9300D0CDB7DEB79A8389830BC0A6
:1019900089819A81FC0180810E94AB0C89819A81A6
:1019A00001969A83898389819A81FC0180818823A9
:1019B00079F70E94750B0F900F90DF91CF910895EA
:1019C0000F931F93CF93DF93CDB7DEB761970FB619
:1019D000F894DEBF0FBECDBF888B698B88898330BA
:1019E00048F48889882331F08989813118F48989FC
:1019F000882319F480E889830DC08889813021F417
:101A000089898158898306C08889823019F4898937
:101A10008154898389810E94960C80E090E0A0E83F
:101A2000BFE38A839B83AC83BD836A817B818C8186
:101A30009D8120E030E04AE753E40E949310DC01EE
:101A4000CB018E839F83A887B98711E06E817F8148
:101A50008885998520E030E040E85FE30E94400FF0
:101A600088230CF010E0112329F081E090E09B879F
:101A70008A8746C011E06E817F818885998520E044
:101A80003FEF4FE757E40E948F1018160CF010E05C
:101A9000112361F16A817B818C819D8120E030E09E
:101AA00040E251E40E949310DC01CB01BC01CD0166
:101AB0000E94B10FDC01CB019B878A8712C089E1AC
:101AC00090E09D878C878C859D858C01C80101974E
:101AD000F1F78C011D870C878A859B8501979B8771
:101AE0008A878A859B85009751F717C06E817F8111
:101AF000888599850E94B10FDC01CB019B878A877D
:101B00008A859B859F878E878E859F858C01C801DE
:101B10000197F1F78C011F870E8761960FB6F89435
:101B2000DEBF0FBECDBFDF91CF911F910F91089502
:101B3000CF93DF9300D000D000D0CDB7DEB76B835A
:101B40007C838D839E838B819C81AD81BE81880F38
:101B5000991FAA1FBB1F880F991FAA1FBB1F880FA1
:101B6000991FAA1FBB1F880F991FAA1FBB1F9C018B
:101B7000AD0180E092E1AAE7B0E0BC01CD010E9496
:101B80002811DA01C90101979A83898380E490E0E2
:101B900029813A81232F3327FC01208389E290E0B9
:101BA0002981FC0120838AE290E02AE230E0F901F9
:101BB00020812860FC0120838AE290E02AE230E064
:101BC000F90120812061FC01208380E490E026E877
:101BD000FC01208326960FB6F894DEBF0FBECDBF62
:101BE000DF91CF910895CF93DF930F92CDB7DEB7FA
:101BF000898300008BE290E0FC018081882F90E0D7
:101C00008072907095958795959587959595879510
:101C10009595879595958795009761F38CE290E06F
:101C20002981FC0120830F90DF91CF910895CF93FC
:101C3000DF93CDB7DEB700008BE290E0FC0180813E
:101C4000881F8827881F882F90E090700097A1F345
:101C50008CE290E0FC018081DF91CF9108950F9399
:101C60001F93CF93DF93CDB7DEB760970FB6F8948D
:101C7000DEBF0FBECDBF988B8F878BC08F859889B5
:101C8000FC0180810E94F30D8F8598890196988BC5
:101C90008F8780E090E0A8ECB2E489839A83AB83DD
:101CA000BC8369817A818B819C8120E030E04AEF9E
:101CB00054E40E949310DC01CB018D839E83AF839B
:101CC000B88711E06D817E818F81988520E030E0BA
:101CD00040E85FE30E94400F88230CF010E01123DE
:101CE00029F081E090E09A87898746C011E06D81F4
:101CF0007E818F81988520E03FEF4FE757E40E9477
:101D00008F1018160CF010E0112361F169817A81AF
:101D10008B819C8120E030E040E251E40E949310EE
:101D2000DC01CB01BC01CD010E94B10FDC01CB0174
:101D30009A87898712C088EC90E09C878B878B8577
:101D40009C858C01C8010197F1F78C011C870B87DA
:101D500089859A8501979A87898789859A850097C9
:101D600051F717C06D817E818F8198850E94B10FD8
:101D7000DC01CB019A87898789859A859E878D8723
:101D80008D859E858C01F8013197F1F78F011E87B3
:101D90000D878F859889FC018081882309F06ECF9B
:101DA00060960FB6F894DEBF0FBECDBFDF91CF9126
:101DB0001F910F9108955058BB27AA270ED075C1C7
:101DC00066D130F06BD120F031F49F3F11F41EF456
:101DD0005BC10EF4E095E7FB51C1E92F77D180F3A9
:101DE000BA17620773078407950718F071F49EF518
:101DF0008FC10EF4E0950B2EBA2FA02D0B01B90167
:101E000090010C01CA01A0011124FF27591B99F070
:101E1000593F50F4503E68F11A16F040A22F232F7C
:101E2000342F4427585FF3CF469537952795A795CC
:101E3000F0405395C9F77EF41F16BA0B620B730B73
:101E4000840BBAF09150A1F0FF0FBB1F661F771FE4
:101E5000881FC2F70EC0BA0F621F731F841F48F499
:101E6000879577956795B795F7959E3F08F0B3CF1F
:101E70009395880F08F09927EE0F97958795089509
:101E8000D9D008F481E008950CD00FC107D140F0FB
:101E9000FED030F021F45F3F19F0F0C0511139C18C
:101EA000F3C014D198F39923C9F35523B1F3951BCB
:101EB000550BBB27AA2762177307840738F09F5F6B
:101EC0005F4F220F331F441FAA1FA9F333D00E2EDA
:101ED0003AF0E0E830D091505040E695001CCAF747
:101EE00029D0FE2F27D0660F771F881FBB1F26170C
:101EF00037074807AB07B0E809F0BB0B802DBF01DF
:101F0000FF2793585F4F2AF09E3F510568F0B6C0F7
:101F100000C15F3FECF3983EDCF3869577956795BB
:101F2000B795F7959F5FC9F7880F911D969587958F
:101F300097F90895E1E0660F771F881FBB1F6217AE
:101F400073078407BA0720F0621B730B840BBA0B6C
:101F5000EE1F88F7E095089504D06894B111D9C0B8
:101F60000895BCD088F09F5790F0B92F9927B751AA
:101F7000A0F0D1F0660F771F881F991F1AF0BA954D
:101F8000C9F712C0B13081F0C3D0B1E00895C0C02C
:101F9000672F782F8827B85F39F0B93FCCF3869543
:101FA00077956795B395D9F73EF4909580957095A0
:101FB00061957F4F8F4F9F4F0895E89409C097FB1D
:101FC0003EF490958095709561957F4F8F4F9F4F10
:101FD0009923A9F0F92F96E9BB279395F695879554
:101FE00077956795B795F111F8CFFAF4BB0F11F417
:101FF00060FF1BC06F5F7F4F8F4F9F4F16C08823BE
:1020000011F096E911C0772321F09EE8872F762FF3
:1020100005C0662371F096E8862F70E060E02AF034
:102020009A95660F771F881FDAF7880F9695879520
:1020300097F90895990F0008550FAA0BE0E8FEEFF5
:1020400016161706E807F907C0F012161306E4077C
:10205000F50798F0621B730B840B950B39F40A2675
:1020600061F0232B242B252B21F408950A2609F453
:10207000A140A6958FEF811D811D089597F99F6757
:1020800080E870E060E008959FEF80EC0895002400
:102090000A941616170618060906089500240A94CD
:1020A00012161306140605060895092E0394000C53
:1020B00011F4882352F0BB0F40F4BF2B11F460FFE2
:1020C00004C06F5F7F4F8F4F9F4F089557FD90580B
:1020D000440F551F59F05F3F71F04795880F97FBEC
:1020E000991F61F09F3F79F08795089512161306A6
:1020F0001406551FF2CF4695F1DF08C016161706D5
:102100001806991FF1CF8695710561050894089509
:10211000E894BB2766277727CB0197F908958ADFD4
:1021200008F48FEF08950BD0C0CFB1DF28F0B6DFF1
:1021300018F0952309F0A2CFA7CF1124EACFC6DF6C
:10214000A0F3959FD1F3950F50E0551F629FF001CA
:10215000729FBB27F00DB11D639FAA27F00DB11D23
:10216000AA1F649F6627B00DA11D661F829F2227AC
:10217000B00DA11D621F739FB00DA11D621F839F33
:10218000A00D611D221F749F3327A00D611D231F09
:10219000849F600D211D822F762F6A2F11249F5757
:1021A00050408AF0E1F088234AF0EE0FFF1FBB1F7A
:1021B000661F771F881F91505040A9F79E3F510519
:1021C00070F05CCFA6CF5F3FECF3983EDCF38695D2
:1021D00077956795B795F795E7959F5FC1F7FE2BC4
:1021E000880F911D9695879597F90895629FD00164
:1021F000739FF001829FE00DF11D649FE00DF11DC2
:10220000929FF00D839FF00D749FF00D659FF00D70
:102210009927729FB00DE11DF91F639FB00DE11D5D
:10222000F91FBD01CF011124089597FB092E072640
:102230000AD077FD04D02ED006D000201AF4709575
:1022400061957F4F0895F6F7909581959F4F08957A
:10225000A1E21A2EAA1BBB1BFD010DC0AA1FBB1FAA
:10226000EE1FFF1FA217B307E407F50720F0A21B1C
:10227000B30BE40BF50B661F771F881F991F1A9489
:1022800069F760957095809590959B01AC01BD01B3
:10229000CF010895AA1BBB1B51E107C0AA1FBB1F9A
:1022A000A617B70710F0A61BB70B881F991F5A95E2
:1022B000A9F780959095BC01CD010895F894FFCFC2
:1022C00044697374616E63653A20004469726563A2
:1022D00074696F6E3A2000434D00202000202020BA
:0222E0000000FC
:00000001FF
